{
	"_format": "hh-sol-artifact-1",
	"contractName": "RiscZeroGroth16Verifier",
	"sourceName": "contracts/RiscZeroGroth16Verifier.sol",
	"abi": [
		{
			"type": "constructor",
			"inputs": [
				{
					"name": "control_root",
					"type": "bytes32",
					"internalType": "bytes32"
				},
				{
					"name": "bn254_control_id",
					"type": "bytes32",
					"internalType": "bytes32"
				}
			],
			"stateMutability": "nonpayable"
		},
		{
			"type": "function",
			"name": "BN254_CONTROL_ID",
			"inputs": [],
			"outputs": [
				{
					"name": "",
					"type": "bytes32",
					"internalType": "bytes32"
				}
			],
			"stateMutability": "view"
		},
		{
			"type": "function",
			"name": "CONTROL_ROOT_0",
			"inputs": [],
			"outputs": [
				{
					"name": "",
					"type": "bytes16",
					"internalType": "bytes16"
				}
			],
			"stateMutability": "view"
		},
		{
			"type": "function",
			"name": "CONTROL_ROOT_1",
			"inputs": [],
			"outputs": [
				{
					"name": "",
					"type": "bytes16",
					"internalType": "bytes16"
				}
			],
			"stateMutability": "view"
		},
		{
			"type": "function",
			"name": "SELECTOR",
			"inputs": [],
			"outputs": [
				{
					"name": "",
					"type": "bytes4",
					"internalType": "bytes4"
				}
			],
			"stateMutability": "view"
		},
		{
			"type": "function",
			"name": "verify",
			"inputs": [
				{
					"name": "seal",
					"type": "bytes",
					"internalType": "bytes"
				},
				{
					"name": "imageId",
					"type": "bytes32",
					"internalType": "bytes32"
				},
				{
					"name": "journalDigest",
					"type": "bytes32",
					"internalType": "bytes32"
				}
			],
			"outputs": [],
			"stateMutability": "view"
		},
		{
			"type": "function",
			"name": "verifyIntegrity",
			"inputs": [
				{
					"name": "receipt",
					"type": "tuple",
					"internalType": "struct Receipt",
					"components": [
						{
							"name": "seal",
							"type": "bytes",
							"internalType": "bytes"
						},
						{
							"name": "claimDigest",
							"type": "bytes32",
							"internalType": "bytes32"
						}
					]
				}
			],
			"outputs": [],
			"stateMutability": "view"
		},
		{
			"type": "function",
			"name": "verifyProof",
			"inputs": [
				{
					"name": "_pA",
					"type": "uint256[2]",
					"internalType": "uint256[2]"
				},
				{
					"name": "_pB",
					"type": "uint256[2][2]",
					"internalType": "uint256[2][2]"
				},
				{
					"name": "_pC",
					"type": "uint256[2]",
					"internalType": "uint256[2]"
				},
				{
					"name": "_pubSignals",
					"type": "uint256[5]",
					"internalType": "uint256[5]"
				}
			],
			"outputs": [
				{
					"name": "",
					"type": "bool",
					"internalType": "bool"
				}
			],
			"stateMutability": "view"
		},
		{
			"type": "error",
			"name": "SafeCastOverflowedUintDowncast",
			"inputs": [
				{
					"name": "bits",
					"type": "uint8",
					"internalType": "uint8"
				},
				{
					"name": "value",
					"type": "uint256",
					"internalType": "uint256"
				}
			]
		},
		{
			"type": "error",
			"name": "SelectorMismatch",
			"inputs": [
				{
					"name": "received",
					"type": "bytes4",
					"internalType": "bytes4"
				},
				{
					"name": "expected",
					"type": "bytes4",
					"internalType": "bytes4"
				}
			]
		},
		{
			"type": "error",
			"name": "VerificationFailed",
			"inputs": []
		}
	],
	"bytecode": "0x61010060405234801561001157600080fd5b5060405161259238038061259283398101604081905261003091611074565b610039826102bf565b6001600160801b031990811660a0521660805260c08190526040517f72697363302e47726f74683136526563656970745665726966696572506172618152656d657465727360d01b60208201526002908190602601602060405180830381855afa1580156100ab573d6000803e3d6000fd5b5050506040513d601f19601f820116820180604052508101906100ce9190611098565b8361021f8460008190506008817eff00ff00ff00ff00ff00ff00ff00ff00ff00ff00ff00ff00ff00ff00ff00ff16901b6008827fff00ff00ff00ff00ff00ff00ff00ff00ff00ff00ff00ff00ff00ff00ff00ff0016901c1790506010817dffff0000ffff0000ffff0000ffff0000ffff0000ffff0000ffff0000ffff16901b6010827fffff0000ffff0000ffff0000ffff0000ffff0000ffff0000ffff0000ffff000016901c1790506020817bffffffff00000000ffffffff00000000ffffffff00000000ffffffff16901b6020827fffffffff00000000ffffffff00000000ffffffff00000000ffffffff0000000016901c17905060408177ffffffffffffffff0000000000000000ffffffffffffffff16901b6040827fffffffffffffffff0000000000000000ffffffffffffffff000000000000000016901c179050608081901b608082901c179050919050565b61022761042d565b60408051602081019590955284019290925260608301526080820152600360f81b60a082015260a20160408051601f198184030181529082905261026a916110e1565b602060405180830381855afa158015610287573d6000803e3d6000fd5b5050506040513d601f19601f820116820180604052508101906102aa9190611098565b6001600160e01b03191660e052506111869050565b600080806104138460008190506008817eff00ff00ff00ff00ff00ff00ff00ff00ff00ff00ff00ff00ff00ff00ff00ff16901b6008827fff00ff00ff00ff00ff00ff00ff00ff00ff00ff00ff00ff00ff00ff00ff00ff0016901c1790506010817dffff0000ffff0000ffff0000ffff0000ffff0000ffff0000ffff0000ffff16901b6010827fffff0000ffff0000ffff0000ffff0000ffff0000ffff0000ffff0000ffff000016901c1790506020817bffffffff00000000ffffffff00000000ffffffff00000000ffffffff16901b6020827fffffffff00000000ffffffff00000000ffffffff00000000ffffffff0000000016901c17905060408177ffffffffffffffff0000000000000000ffffffffffffffff16901b6040827fffffffffffffffff0000000000000000ffffffffffffffff000000000000000016901c179050608081901b608082901c179050919050565b608081901b956001600160801b0319909116945092505050565b60408051600680825260e082019092526000918291906020820160c08036833701905050905060027f12ac9a25dcd5e1a832a9061a082c15dd1d61aa9c4d553505739d0f5d65dc3be47f025aa744581ebe7ad91731911c898569106ff5a2d30f3eee2b23c60ee980acd46040516020016104b1929190918252602082015260400190565b60408051601f19818403018152908290526104cb916110e1565b602060405180830381855afa1580156104e8573d6000803e3d6000fd5b5050506040513d601f19601f8201168201806040525081019061050b9190611098565b8160008151811061051e5761051e6110f4565b60200260200101818152505060027f0707b920bc978c02f292fae2036e057be54294114ccc3c8769d883f688a1423f7f2e32a094b7589554f7bc357bf63481acd2d55555c203383782a4650787ff6642604051602001610588929190918252602082015260400190565b60408051601f19818403018152908290526105a2916110e1565b602060405180830381855afa1580156105bf573d6000803e3d6000fd5b5050506040513d601f19601f820116820180604052508101906105e29190611098565b816001815181106105f5576105f56110f4565b60200260200101818152505060027f0bca36e2cbe6394b3e249751853f961511011c7148e336f4fd974644850fc3477f2ede7c9acf48cf3a3729fa3d68714e2a8435d4fa6db8f7f409c153b1fcdf9b8b60405160200161065f929190918252602082015260400190565b60408051601f1981840301815290829052610679916110e1565b602060405180830381855afa158015610696573d6000803e3d6000fd5b5050506040513d601f19601f820116820180604052508101906106b99190611098565b816002815181106106cc576106cc6110f4565b60200260200101818152505060027f1b8af999dbfbb3927c091cc2aaf201e488cbacc3e2c6b6fb5a25f9112e04f2a77f2b91a26aa92e1b6f5722949f192a81c850d586d81a60157f3e9cf04f679cccd6604051602001610736929190918252602082015260400190565b60408051601f1981840301815290829052610750916110e1565b602060405180830381855afa15801561076d573d6000803e3d6000fd5b5050506040513d601f19601f820116820180604052508101906107909190611098565b816003815181106107a3576107a36110f4565b60200260200101818152505060027f2b5f494ed674235b8ac1750bdfd5a7615f002d4a1dcefeddd06eda5a076ccd0d7f2fe520ad2020aab9cbba817fcbb9a863b8a76ff88f14f912c5e71665b2ad5e8260405160200161080d929190918252602082015260400190565b60408051601f1981840301815290829052610827916110e1565b602060405180830381855afa158015610844573d6000803e3d6000fd5b5050506040513d601f19601f820116820180604052508101906108679190611098565b8160048151811061087a5761087a6110f4565b60200260200101818152505060027f0f1c3c0d5d9da0fa03666843cde4e82e869ba5252fce3c25d5940320b1c4d4937f214bfcff74f425f6fe8c0d07b307482d8bc8bb2f3608f68287aa01bd0b69e8096040516020016108e4929190918252602082015260400190565b60408051601f19818403018152908290526108fe916110e1565b602060405180830381855afa15801561091b573d6000803e3d6000fd5b5050506040513d601f19601f8201168201806040525081019061093e9190611098565b81600581518110610951576109516110f4565b602002602001018181525050600280604051610990907f72697363305f67726f746831362e566572696679696e674b65790000000000008152601a0190565b602060405180830381855afa1580156109ad573d6000803e3d6000fd5b5050506040513d601f19601f820116820180604052508101906109d09190611098565b60027f2d4d9aa7e302d9df41749d5507949d05dbea33fbb16c643b22f599a2be6df2e27f14bedd503c37ceb061d8ec60209fe345ce89830a19230301f076caff004d1926604051602001610a2e929190918252602082015260400190565b60408051601f1981840301815290829052610a48916110e1565b602060405180830381855afa158015610a65573d6000803e3d6000fd5b5050506040513d601f19601f82011682018060405250810190610a889190611098565b604080517f0967032fcbf776d1afc985f88877f182d38480a653f2decaa9794cbc3bf3060c60208201527f0e187847ad4c798374d0d6732bf501847dd68bc0e071241e0213bc7fc13db7ab918101919091527f304cfbd1e08a704a99f5e847d93f8c3caafddec46b7a0d379da69a4d112346a760608201527f1739c1b1a457a8c7313123d24d2f9192f896b7c63eea05a9d57f06547ad0cec8608082015260029060a00160408051601f1981840301815290829052610b46916110e1565b602060405180830381855afa158015610b63573d6000803e3d6000fd5b5050506040513d601f19601f82011682018060405250810190610b869190611098565b604080517f198e9393920d483a7260bfb731fb5d25f1aa493335a9e71297e485b7aef312c260208201527f1800deef121f1e76426a00665e5c4479674322d4f75edadd46debd5cd992f6ed918101919091527f090689d0585ff075ec9e99ad690c3395bc4b313370b38ef355acdadcd122975b60608201527f12c85ea5db8c6deb4aab71808dcb408fe3d1e7690c43d37b4ce6cc0166fa7daa608082015260029060a00160408051601f1981840301815290829052610c44916110e1565b602060405180830381855afa158015610c61573d6000803e3d6000fd5b5050506040513d601f19601f82011682018060405250810190610c849190611098565b604080517f03b03cd5effa95ac9bee94f1f5ef907157bda4812ccf0b4c91f42bb629f83a1c60208201527f1aa085ff28179a12d922dba0547057ccaae94b9d69cfaa4e60401fea7f3e0333918101919091527f110c10134f200b19f6490846d518c9aea868366efb7228ca5c91d2940d03076260608201527f1e60f31fcbf757e837e867178318832d0b2d74d59e2fea1c7142df187d3fc6d3608082015260029060a00160408051601f1981840301815290829052610d42916110e1565b602060405180830381855afa158015610d5f573d6000803e3d6000fd5b5050506040513d601f19601f82011682018060405250810190610d829190611098565b610dfd6002604051610db7907f72697363305f67726f746831362e566572696679696e674b65792e49430000008152601d0190565b602060405180830381855afa158015610dd4573d6000803e3d6000fd5b5050506040513d601f19601f82011682018060405250810190610df79190611098565b88610e93565b6040805160208101979097528601949094526060850192909252608084015260a083015260c0820152600560f81b60e082015260e20160408051601f1981840301815290829052610e4d916110e1565b602060405180830381855afa158015610e6a573d6000803e3d6000fd5b5050506040513d601f19601f82011682018060405250810190610e8d9190611098565b91505090565b600080805b8351811015610eed57610ee385858360018851610eb5919061110a565b610ebf919061110a565b81518110610ecf57610ecf6110f4565b602002602001015184610ef760201b60201c565b9150600101610e98565b5090505b92915050565b604080516002808252606082018352600092839291906020830190803683370190505090508381600081518110610f3057610f306110f4565b6020026020010181815250508281600181518110610f5057610f506110f4565b6020908102919091010152610f658582610f6e565b95945050505050565b60408051600080825260208201909252610f89848483610f91565b949350505050565b600080610fa4845161103d60201b60201c565b9050600060088261ffff16901c60088361ffff16901b1760f01b9050600286868684604051602001610fd9949392919061112b565b60408051601f1981840301815290829052610ff3916110e1565b602060405180830381855afa158015611010573d6000803e3d6000fd5b5050506040513d601f19601f820116820180604052508101906110339190611098565b9695505050505050565b600061ffff821115611070576040516306dfcc6560e41b8152601060048201526024810183905260440160405180910390fd5b5090565b6000806040838503121561108757600080fd5b505080516020909101519092909150565b6000602082840312156110aa57600080fd5b5051919050565b6000815160005b818110156110d257602081850181015186830152016110b8565b50600093019283525090919050565b60006110ed82846110b1565b9392505050565b634e487b7160e01b600052603260045260246000fd5b81810381811115610ef157634e487b7160e01b600052601160045260246000fd5b84815260006020820185516020870160005b8281101561115b57815184526020938401939091019060010161113d565b50505061116881866110b1565b6001600160f01b031994909416845250506002909101949350505050565b60805160a05160c05160e0516113b26111e0600039600081816087015281816107df015261084401526000818160e1015261091d01526000818161013901526108e401526000818161017901526108bc01526113b26000f3fe608060405234801561001057600080fd5b506004361061007d5760003560e01c806334baeab91161005b57806334baeab9146101115780638989fa2e146101345780639181e4b114610174578063ab750e751461019b57600080fd5b8063053c238d146100825780631599ead5146100c7578063258038e2146100dc575b600080fd5b6100a97f000000000000000000000000000000000000000000000000000000000000000081565b6040516001600160e01b031990911681526020015b60405180910390f35b6100da6100d5366004610ee3565b6101ae565b005b6101037f000000000000000000000000000000000000000000000000000000000000000081565b6040519081526020016100be565b61012461011f366004610f36565b6101c8565b60405190151581526020016100be565b61015b7f000000000000000000000000000000000000000000000000000000000000000081565b6040516001600160801b031990911681526020016100be565b61015b7f000000000000000000000000000000000000000000000000000000000000000081565b6100da6101a9366004610f9d565b61079a565b6101c56101bb828061101e565b83602001356107bc565b50565b6000610728565b7f30644e72e131a029b85045b68181585d2833e84879b9709143e1f593f000000181106101c5576000805260206000f35b600060405183815284602082015285604082015260408160608360076107d05a03fa915081610233576000805260206000f35b825160408201526020830151606082015260408360808360066107d05a03fa91505080610264576000805260206000f35b5050505050565b7f12ac9a25dcd5e1a832a9061a082c15dd1d61aa9c4d553505739d0f5d65dc3be485527f025aa744581ebe7ad91731911c898569106ff5a2d30f3eee2b23c60ee980acd460208601526000608086018661030887357f2e32a094b7589554f7bc357bf63481acd2d55555c203383782a4650787ff66427f0707b920bc978c02f292fae2036e057be54294114ccc3c8769d883f688a1423f84610200565b61035860208801357f2ede7c9acf48cf3a3729fa3d68714e2a8435d4fa6db8f7f409c153b1fcdf9b8b7f0bca36e2cbe6394b3e249751853f961511011c7148e336f4fd974644850fc34784610200565b6103a860408801357f2b91a26aa92e1b6f5722949f192a81c850d586d81a60157f3e9cf04f679cccd67f1b8af999dbfbb3927c091cc2aaf201e488cbacc3e2c6b6fb5a25f9112e04f2a784610200565b6103f860608801357f2fe520ad2020aab9cbba817fcbb9a863b8a76ff88f14f912c5e71665b2ad5e827f2b5f494ed674235b8ac1750bdfd5a7615f002d4a1dcefeddd06eda5a076ccd0d84610200565b61044860808801357f214bfcff74f425f6fe8c0d07b307482d8bc8bb2f3608f68287aa01bd0b69e8097f0f1c3c0d5d9da0fa03666843cde4e82e869ba5252fce3c25d5940320b1c4d49384610200565b50823581527f30644e72e131a029b85045b68181585d97816a916871ca8d3c208c16d87cfd4760208401357f30644e72e131a029b85045b68181585d97816a916871ca8d3c208c16d87cfd4703066020820152833560408201526020840135606082015260408401356080820152606084013560a08201527f2d4d9aa7e302d9df41749d5507949d05dbea33fbb16c643b22f599a2be6df2e260c08201527f14bedd503c37ceb061d8ec60209fe345ce89830a19230301f076caff004d192660e08201527f0967032fcbf776d1afc985f88877f182d38480a653f2decaa9794cbc3bf3060c6101008201527f0e187847ad4c798374d0d6732bf501847dd68bc0e071241e0213bc7fc13db7ab6101208201527f304cfbd1e08a704a99f5e847d93f8c3caafddec46b7a0d379da69a4d112346a76101408201527f1739c1b1a457a8c7313123d24d2f9192f896b7c63eea05a9d57f06547ad0cec8610160820152600087015161018082015260206000018701516101a08201527f198e9393920d483a7260bfb731fb5d25f1aa493335a9e71297e485b7aef312c26101c08201527f1800deef121f1e76426a00665e5c4479674322d4f75edadd46debd5cd992f6ed6101e08201527f090689d0585ff075ec9e99ad690c3395bc4b313370b38ef355acdadcd122975b6102008201527f12c85ea5db8c6deb4aab71808dcb408fe3d1e7690c43d37b4ce6cc0166fa7daa610220820152843561024082015260208501356102608201527f03b03cd5effa95ac9bee94f1f5ef907157bda4812ccf0b4c91f42bb629f83a1c6102808201527f1aa085ff28179a12d922dba0547057ccaae94b9d69cfaa4e60401fea7f3e03336102a08201527f110c10134f200b19f6490846d518c9aea868366efb7228ca5c91d2940d0307626102c08201527f1e60f31fcbf757e837e867178318832d0b2d74d59e2fea1c7142df187d3fc6d36102e08201526020816103008360086107d05a03fa9051169695505050505050565b604051610380810160405261074060008401356101cf565b61074d60208401356101cf565b61075a60408401356101cf565b61076760608401356101cf565b61077460808401356101cf565b61078160a08401356101cf565b61078e818486888a61026b565b90508060005260206000f35b6107b684846107b16107ac86866109d7565b610b40565b6107bc565b50505050565b6107ca60046000848661106c565b6107d391611096565b6001600160e01b0319167f00000000000000000000000000000000000000000000000000000000000000006001600160e01b031916146108775761081b60046000848661106c565b61082491611096565b604051632e2ce35360e21b81526001600160e01b031991821660048201527f0000000000000000000000000000000000000000000000000000000000000000909116602482015260440160405180910390fd5b60008061088383610c9f565b90925090506000610897856004818961106c565b8101906108a49190611190565b8051602080830151604080850151815160a0810183527f0000000000000000000000000000000000000000000000000000000000000000608090811c82527f0000000000000000000000000000000000000000000000000000000000000000811c9582019590955289851c8184015288851c60608201527f00000000000000000000000000000000000000000000000000000000000000009481019490945290516334baeab960e01b815294955060009430946334baeab99461096d9491939192600401611277565b602060405180830381865afa15801561098a573d6000803e3d6000fd5b505050506040513d601f19601f820116820180604052508101906109ae91906112fc565b9050806109ce5760405163439cc0cd60e01b815260040160405180910390fd5b50505050505050565b6109df610e9e565b6040518060a00160405280848152602001600280604051610a17907072697363302e53797374656d537461746560781b815260110190565b602060405180830381855afa158015610a34573d6000803e3d6000fd5b5050506040513d601f19601f82011682018060405250810190610a57919061131e565b60408051602081019290925260009082018190526060820152600160f81b606482015260660160408051601f1981840301815290829052610a9791611337565b602060405180830381855afa158015610ab4573d6000803e3d6000fd5b5050506040513d601f19601f82011682018060405250810190610ad7919061131e565b8152602001604051806040016040528060006002811115610afa57610afa611366565b8152602001600060ff1681525081526020016000801b8152602001610b3560405180604001604052808681526020016000801b815250610e06565b905290505b92915050565b6000600280604051610b6a907172697363302e52656365697074436c61696d60701b815260120190565b602060405180830381855afa158015610b87573d6000803e3d6000fd5b5050506040513d601f19601f82011682018060405250810190610baa919061131e565b60608401518451602086015160808701516040880151516018906002811115610bd557610bd5611366565b60408a810151602090810151825191820199909952908101969096526060860194909452608085019290925260a084015263ffffffff909116901b60e01b6001600160e01b03191660c082015260f89190911b6001600160f81b03191660c4820152600160fa1b60c882015260ca015b60408051601f1981840301815290829052610c5f91611337565b602060405180830381855afa158015610c7c573d6000803e3d6000fd5b5050506040513d601f19601f82011682018060405250810190610b3a919061131e565b60008080610dec8460008190506008817eff00ff00ff00ff00ff00ff00ff00ff00ff00ff00ff00ff00ff00ff00ff00ff16901b6008827fff00ff00ff00ff00ff00ff00ff00ff00ff00ff00ff00ff00ff00ff00ff00ff0016901c1790506010817dffff0000ffff0000ffff0000ffff0000ffff0000ffff0000ffff0000ffff16901b6010827fffff0000ffff0000ffff0000ffff0000ffff0000ffff0000ffff0000ffff000016901c1790506020817bffffffff00000000ffffffff00000000ffffffff00000000ffffffff16901b6020827fffffffff00000000ffffffff00000000ffffffff00000000ffffffff0000000016901c17905060408177ffffffffffffffff0000000000000000ffffffffffffffff16901b60408277ffffffffffffffff0000000000000000ffffffffffffffff1916901c179050608081901b608082901c179050919050565b608081901b956001600160801b0319909116945092505050565b6000600280604051610e2a906b1c9a5cd8cc0b93dd5d1c1d5d60a21b8152600c0190565b602060405180830381855afa158015610e47573d6000803e3d6000fd5b5050506040513d601f19601f82011682018060405250810190610e6a919061131e565b83516020808601516040805192830194909452928101919091526060810191909152600160f91b6080820152608201610c45565b6040805160a08101825260008082526020820152908101610ecf604080518082019091526000808252602082015290565b815260006020820181905260409091015290565b600060208284031215610ef557600080fd5b813567ffffffffffffffff811115610f0c57600080fd5b820160408185031215610f1e57600080fd5b9392505050565b8060408101831015610b3a57600080fd5b6000806000806101a08587031215610f4d57600080fd5b610f578686610f25565b935060c0850186811115610f6a57600080fd5b604086019350610f7a8782610f25565b925050856101a086011115610f8e57600080fd5b50919490935090916101000190565b60008060008060608587031215610fb357600080fd5b843567ffffffffffffffff811115610fca57600080fd5b8501601f81018713610fdb57600080fd5b803567ffffffffffffffff811115610ff257600080fd5b87602082840101111561100457600080fd5b602091820198909750908601359560400135945092505050565b6000808335601e1984360301811261103557600080fd5b83018035915067ffffffffffffffff82111561105057600080fd5b60200191503681900382131561106557600080fd5b9250929050565b6000808585111561107c57600080fd5b8386111561108957600080fd5b5050820193919092039150565b80356001600160e01b031981169060048410156110c7576001600160e01b0319600485900360031b81901b82161691505b5092915050565b634e487b7160e01b600052604160045260246000fd5b6040516060810167ffffffffffffffff81118282101715611107576111076110ce565b60405290565b604051601f8201601f1916810167ffffffffffffffff81118282101715611136576111366110ce565b604052919050565b600082601f83011261114f57600080fd5b611159604061110d565b80604084018581111561116b57600080fd5b845b8181101561118557803584526020938401930161116d565b509095945050505050565b60006101008284031280156111a457600080fd5b5060006111af6110e4565b6111b9858561113e565b815284605f8501126111c9578182fd5b60406111d48161110d565b8060c08701888111156111e5578586fd5b6040880195505b8086101561120f576111fe898761113e565b8352948301946020909201916111ec565b81602086015261121f898261113e565b60408601525092979650505050505050565b8060005b60028110156107b6578151845260209384019390910190600101611235565b8060005b60058110156107b6578151845260209384019390910190600101611258565b6101a081016112868287611231565b604082018560005b60028110156112d55781518360005b60028110156112bc57825182526020928301929091019060010161129d565b505050604092909201916020919091019060010161128e565b5050506112e560c0830185611231565b6112f3610100830184611254565b95945050505050565b60006020828403121561130e57600080fd5b81518015158114610f1e57600080fd5b60006020828403121561133057600080fd5b5051919050565b6000825160005b81811015611358576020818601810151858301520161133e565b506000920191825250919050565b634e487b7160e01b600052602160045260246000fdfea2646970667358221220429dd17070d114f1da188a00a9da0c9f79dae7f650f3f22782f12f175465383564736f6c634300081a0033",
	"linkReferences": {},
	"deployedLinkReferences": {}
}