{
    "_format": "hh-sol-artifact-1",
    "contractName": "Verifier",
    "sourceName": "contracts/Verifier.sol",
    "abi": [
        {
            "type": "constructor",
            "inputs": [
                {
                    "name": "_verifier",
                    "type": "address",
                    "internalType": "contract IRiscZeroVerifier"
                }
            ],
            "stateMutability": "nonpayable"
        },
        {
            "type": "function",
            "name": "imageId",
            "inputs": [],
            "outputs": [
                {
                    "name": "",
                    "type": "bytes32",
                    "internalType": "bytes32"
                }
            ],
            "stateMutability": "view"
        },
        {
            "type": "function",
            "name": "isJournalVerified",
            "inputs": [
                {
                    "name": "",
                    "type": "bytes",
                    "internalType": "bytes"
                }
            ],
            "outputs": [
                {
                    "name": "",
                    "type": "bool",
                    "internalType": "bool"
                }
            ],
            "stateMutability": "view"
        },
        {
            "type": "function",
            "name": "verifier",
            "inputs": [],
            "outputs": [
                {
                    "name": "",
                    "type": "address",
                    "internalType": "contract IRiscZeroVerifier"
                }
            ],
            "stateMutability": "view"
        },
        {
            "type": "function",
            "name": "verify_proof",
            "inputs": [
                {
                    "name": "journalOutput",
                    "type": "bytes",
                    "internalType": "bytes"
                },
                {
                    "name": "seal",
                    "type": "bytes",
                    "internalType": "bytes"
                }
            ],
            "outputs": [],
            "stateMutability": "nonpayable"
        },
        {
            "type": "event",
            "name": "ProofVerified",
            "inputs": [
                {
                    "name": "user",
                    "type": "address",
                    "indexed": true,
                    "internalType": "address"
                },
                {
                    "name": "journal",
                    "type": "bytes",
                    "indexed": false,
                    "internalType": "bytes"
                }
            ],
            "anonymous": false
        }
    ],
    "bytecode": "0x60a0604052348015600f57600080fd5b506040516105bd3803806105bd833981016040819052602c91603c565b6001600160a01b0316608052606a565b600060208284031215604d57600080fd5b81516001600160a01b0381168114606357600080fd5b9392505050565b60805161053261008b600039600081816056015261014301526105326000f3fe608060405234801561001057600080fd5b506004361061004c5760003560e01c80632b7ac3f3146100515780634eabaa5614610095578063b54c1e6c146100aa578063ef3f7dd5146100e8575b600080fd5b6100787f000000000000000000000000000000000000000000000000000000000000000081565b6040516001600160a01b0390911681526020015b60405180910390f35b6100a86100a3366004610353565b61011d565b005b6100d86100b83660046103f3565b805160208183018101805160008252928201919093012091525460ff1681565b604051901515815260200161008c565b61010f7fa68e16e0815455b36f043963fab7bc701e57e81876d0181e7a02d5d0faac1b2381565b60405190815260200161008c565b6000836040516020016101309190610454565b60405160208183030381529060405290507f00000000000000000000000000000000000000000000000000000000000000006001600160a01b031663ab750e7584847fa68e16e0815455b36f043963fab7bc701e57e81876d0181e7a02d5d0faac1b2360001b6002866040516101a69190610487565b602060405180830381855afa1580156101c3573d6000803e3d6000fd5b5050506040513d601f19601f820116820180604052508101906101e691906104a3565b6040518563ffffffff1660e01b815260040161020594939291906104bc565b60006040518083038186803b15801561021d57600080fd5b505afa158015610231573d6000803e3d6000fd5b50505050336001600160a01b03167f9b13024d11182419f0fee1ea81e527d23b582122777d89daab37fc298d3b9d398560405161026e9190610454565b60405180910390a260016000856040516102889190610487565b908152604051908190036020019020805491151560ff1990921691909117905550505050565b634e487b7160e01b600052604160045260246000fd5b600082601f8301126102d557600080fd5b813567ffffffffffffffff8111156102ef576102ef6102ae565b604051601f8201601f19908116603f0116810167ffffffffffffffff8111828210171561031e5761031e6102ae565b60405281815283820160200185101561033657600080fd5b816020850160208301376000918101602001919091529392505050565b60008060006040848603121561036857600080fd5b833567ffffffffffffffff81111561037f57600080fd5b61038b868287016102c4565b935050602084013567ffffffffffffffff8111156103a857600080fd5b8401601f810186136103b957600080fd5b803567ffffffffffffffff8111156103d057600080fd5b8660208284010111156103e257600080fd5b939660209190910195509293505050565b60006020828403121561040557600080fd5b813567ffffffffffffffff81111561041c57600080fd5b610428848285016102c4565b949350505050565b60005b8381101561044b578181015183820152602001610433565b50506000910152565b6020815260008251806020840152610473816040850160208701610430565b601f01601f19169190910160400192915050565b60008251610499818460208701610430565b9190910192915050565b6000602082840312156104b557600080fd5b5051919050565b606081528360608201528385608083013760006080858301015260006080601f19601f87011683010190508360208301528260408301529594505050505056fea26469706673582212202a304d6f8077ffaf2099ccc5c13c0264988c479ebc4034b4bde0eff2ee15f93d64736f6c634300081a0033",
    "linkReferences": {},
    "deployedLinkReferences": {}
}